:0200000058287E
:0E0006008312031350088A004F08820008007E
:10001400831603139818102800000A288312550821
:040024009900080037
:100028008316031398169030831298008316871747
:10003800071383128C1E23281A08F0001D280800B5
:10004800831203131A08F100981C2C28181218168A
:060058007108F000080031
:10005E0003208A110A128000840ACF0A0319D00ADB
:08006E00F003031D2F28080018
:1000760083120313D401520884000008D3005308E6
:10008600003A031950285308D5000A20D40A540808
:0C009600520784000008D3004228080034
:0E00A2000030831203138C1A0130F0000800A6
:1000B000C0208316031788018901831287138813D0
:1000C0003330831603139900181514200230FB00F7
:1000D0000430FC00BA30FD00FD0B6C28FC0B6C28D2
:1000E000FB0B6C2800003B30D2003B202030D200BC
:1000F0003B200A30D5000A200D30D5000A205120BF
:1001000070080319892824207008D1007008D500D0
:060110000A207F288A2866
:10018000203084002F3083120313F0009030CF0012
:080190000030D0002F20080010
:1001200055346E34693476346534723473346934DA
:1001300064346134643420346434653420344734A6
:1001400075346134643461346C3461346A346134DC
:060150007234613400343A
:1001560041346734753469346C3461347234203414
:1001660052346F34643472346934673475346534A8
:080176007A340A340D34003420
:04400E00F22F000786
:00000001FF
